{
  "_format": "hh-sol-artifact-1",
  "contractName": "SafeFactory",
  "sourceName": "contracts/SafeFactory.sol",
  "abi": [
    {
      "anonymous": false,
      "inputs": [
        {
          "indexed": true,
          "internalType": "address",
          "name": "admin",
          "type": "address"
        },
        {
          "indexed": false,
          "internalType": "address",
          "name": "safeAddress",
          "type": "address"
        }
      ],
      "name": "SafeDeployed",
      "type": "event"
    },
    {
      "inputs": [
        {
          "internalType": "address",
          "name": "admin",
          "type": "address"
        }
      ],
      "name": "deployCommunitySafe",
      "outputs": [
        {
          "internalType": "address",
          "name": "",
          "type": "address"
        }
      ],
      "stateMutability": "nonpayable",
      "type": "function"
    }
  ],
  "bytecode": "0x6080604052348015600f57600080fd5b5061069d8061001f6000396000f3fe608060405234801561001057600080fd5b506004361061002b5760003560e01c8063420d624614610030575b600080fd5b61004a600480360381019061004591906101cf565b610060565b604051610057919061020b565b60405180910390f35b60008073ffffffffffffffffffffffffffffffffffffffff168273ffffffffffffffffffffffffffffffffffffffff16036100d0576040517f08c379a00000000000000000000000000000000000000000000000000000000081526004016100c790610283565b60405180910390fd5b6000826040516100df9061015f565b6100e9919061020b565b604051809103906000f080158015610105573d6000803e3d6000fd5b5090508273ffffffffffffffffffffffffffffffffffffffff167f9f57f38058d39775937e43acd5aa6c8585579f7bffbe10c631db6e29f64086c18260405161014e919061020b565b60405180910390a280915050919050565b6103c4806102a483390190565b600080fd5b600073ffffffffffffffffffffffffffffffffffffffff82169050919050565b600061019c82610171565b9050919050565b6101ac81610191565b81146101b757600080fd5b50565b6000813590506101c9816101a3565b92915050565b6000602082840312156101e5576101e461016c565b5b60006101f3848285016101ba565b91505092915050565b61020581610191565b82525050565b600060208201905061022060008301846101fc565b92915050565b600082825260208201905092915050565b7f496e76616c69642061646d696e20616464726573730000000000000000000000600082015250565b600061026d601583610226565b915061027882610237565b602082019050919050565b6000602082019050818103600083015261029c81610260565b905091905056fe608060405234801561001057600080fd5b506040516103c43803806103c4833981810160405281019061003291906101d8565b600073ffffffffffffffffffffffffffffffffffffffff168173ffffffffffffffffffffffffffffffffffffffff16036100a1576040517f08c379a000000000000000000000000000000000000000000000000000000000815260040161009890610262565b60405180910390fd5b806000806101000a81548173ffffffffffffffffffffffffffffffffffffffff021916908373ffffffffffffffffffffffffffffffffffffffff16021790555060008054906101000a900473ffffffffffffffffffffffffffffffffffffffff1673ffffffffffffffffffffffffffffffffffffffff1673e05dcaf9206d125d7887919784756af8e69fad8973ffffffffffffffffffffffffffffffffffffffff167f028e373d49837c41d3257ab1d37bdf333649dc934cb13754a2329f176c3dca3260405160405180910390a350610282565b600080fd5b600073ffffffffffffffffffffffffffffffffffffffff82169050919050565b60006101a58261017a565b9050919050565b6101b58161019a565b81146101c057600080fd5b50565b6000815190506101d2816101ac565b92915050565b6000602082840312156101ee576101ed610175565b5b60006101fc848285016101c3565b91505092915050565b600082825260208201905092915050565b7f496e76616c69642061646d696e20616464726573730000000000000000000000600082015250565b600061024c601583610205565b915061025782610216565b602082019050919050565b6000602082019050818103600083015261027b8161023f565b9050919050565b610133806102916000396000f3fe6080604052348015600f57600080fd5b506004361060325760003560e01c8063afeb47eb146037578063f851a440146051575b600080fd5b603d606b565b6040516048919060e4565b60405180910390f35b60576083565b6040516062919060e4565b60405180910390f35b73e05dcaf9206d125d7887919784756af8e69fad8981565b60008054906101000a900473ffffffffffffffffffffffffffffffffffffffff1681565b600073ffffffffffffffffffffffffffffffffffffffff82169050919050565b600060d08260a7565b9050919050565b60de8160c7565b82525050565b600060208201905060f7600083018460d7565b9291505056fea2646970667358221220f3b2619e0fad081fe11475485ba307c0103da8c26146b9a85a1199b2ab7ed5b964736f6c634300081c0033a264697066735822122083a3189750d8860ff6e55495f9f69b102560fd25683c6294954310e6e3f8d03364736f6c634300081c0033",
  "linkReferences": {},
  "deployedLinkReferences": {}
}