{
  "_format": "hh-sol-artifact-1",
  "contractName": "SafeFactory",
  "sourceName": "contracts/SafeFactory.sol",
  "abi": [
    {
      "anonymous": false,
      "inputs": [
        {
          "indexed": true,
          "internalType": "address",
          "name": "admin",
          "type": "address"
        },
        {
          "indexed": false,
          "internalType": "address",
          "name": "safeAddress",
          "type": "address"
        }
      ],
      "name": "SafeDeployed",
      "type": "event"
    },
    {
      "inputs": [],
      "name": "AGENT_ROASTY",
      "outputs": [
        {
          "internalType": "address",
          "name": "",
          "type": "address"
        }
      ],
      "stateMutability": "view",
      "type": "function"
    },
    {
      "inputs": [],
      "name": "GNOSIS_SAFE_PROXY_FACTORY",
      "outputs": [
        {
          "internalType": "address",
          "name": "",
          "type": "address"
        }
      ],
      "stateMutability": "view",
      "type": "function"
    },
    {
      "inputs": [],
      "name": "GNOSIS_SAFE_SINGLETON",
      "outputs": [
        {
          "internalType": "address",
          "name": "",
          "type": "address"
        }
      ],
      "stateMutability": "view",
      "type": "function"
    },
    {
      "inputs": [
        {
          "internalType": "address",
          "name": "admin",
          "type": "address"
        }
      ],
      "name": "deployCommunitySafe",
      "outputs": [
        {
          "internalType": "address",
          "name": "",
          "type": "address"
        }
      ],
      "stateMutability": "nonpayable",
      "type": "function"
    }
  ],
  "bytecode": "0x6080604052739416e7b49806f370e353f69c5615b5de7c79d74a6000806101000a81548173ffffffffffffffffffffffffffffffffffffffff021916908373ffffffffffffffffffffffffffffffffffffffff160217905550348015606357600080fd5b506108fa806100736000396000f3fe608060405234801561001057600080fd5b506004361061004c5760003560e01c8063420d62461461005157806372fcb9221461008157806397ce5a2b1461009f578063afeb47eb146100bd575b600080fd5b61006b60048036038101906100669190610496565b6100db565b60405161007891906104d2565b60405180910390f35b6100896103eb565b60405161009691906104d2565b60405180910390f35b6100a7610403565b6040516100b491906104d2565b60405180910390f35b6100c561041b565b6040516100d291906104d2565b60405180910390f35b60008073ffffffffffffffffffffffffffffffffffffffff168273ffffffffffffffffffffffffffffffffffffffff160361014b576040517f08c379a00000000000000000000000000000000000000000000000000000000081526004016101429061054a565b60405180910390fd5b6000600267ffffffffffffffff8111156101685761016761056a565b5b6040519080825280602002602001820160405280156101965781602001602082028036833780820191505090505b50905073e05dcaf9206d125d7887919784756af8e69fad89816000815181106101c2576101c1610599565b5b602002602001019073ffffffffffffffffffffffffffffffffffffffff16908173ffffffffffffffffffffffffffffffffffffffff1681525050828160018151811061021157610210610599565b5b602002602001019073ffffffffffffffffffffffffffffffffffffffff16908173ffffffffffffffffffffffffffffffffffffffff1681525050600060029050600063b63e800d60e01b8383600080600080600060405160240161027b9796959493929190610738565b604051602081830303815290604052907bffffffffffffffffffffffffffffffffffffffffffffffffffffffff19166020820180517bffffffffffffffffffffffffffffffffffffffffffffffffffffffff8381831617835250505050905060008060009054906101000a900473ffffffffffffffffffffffffffffffffffffffff1673ffffffffffffffffffffffffffffffffffffffff166361b69abd73d9dbd2f077c5a0417a8b9f54f17b93f6f41f7c71846040518363ffffffff1660e01b815260040161034c929190610852565b6020604051808303816000875af115801561036b573d6000803e3d6000fd5b505050506040513d601f19601f8201168201806040525081019061038f9190610897565b90508573ffffffffffffffffffffffffffffffffffffffff167f9f57f38058d39775937e43acd5aa6c8585579f7bffbe10c631db6e29f64086c1826040516103d791906104d2565b60405180910390a280945050505050919050565b73d9dbd2f077c5a0417a8b9f54f17b93f6f41f7c7181565b739416e7b49806f370e353f69c5615b5de7c79d74a81565b73e05dcaf9206d125d7887919784756af8e69fad8981565b600080fd5b600073ffffffffffffffffffffffffffffffffffffffff82169050919050565b600061046382610438565b9050919050565b61047381610458565b811461047e57600080fd5b50565b6000813590506104908161046a565b92915050565b6000602082840312156104ac576104ab610433565b5b60006104ba84828501610481565b91505092915050565b6104cc81610458565b82525050565b60006020820190506104e760008301846104c3565b92915050565b600082825260208201905092915050565b7f496e76616c69642061646d696e20616464726573730000000000000000000000600082015250565b60006105346015836104ed565b915061053f826104fe565b602082019050919050565b6000602082019050818103600083015261056381610527565b9050919050565b7f4e487b7100000000000000000000000000000000000000000000000000000000600052604160045260246000fd5b7f4e487b7100000000000000000000000000000000000000000000000000000000600052603260045260246000fd5b600081519050919050565b600082825260208201905092915050565b6000819050602082019050919050565b6105fd81610458565b82525050565b600061060f83836105f4565b60208301905092915050565b6000602082019050919050565b6000610633826105c8565b61063d81856105d3565b9350610648836105e4565b8060005b838110156106795781516106608882610603565b975061066b8361061b565b92505060018101905061064c565b5085935050505092915050565b6000819050919050565b61069981610686565b82525050565b50565b60006106af6000836104ed565b91506106ba8261069f565b600082019050919050565b6000819050919050565b600060ff82169050919050565b6000819050919050565b60006107016106fc6106f7846106c5565b6106dc565b6106cf565b9050919050565b610711816106e6565b82525050565b600061072282610438565b9050919050565b61073281610717565b82525050565b6000610100820190508181036000830152610753818a610628565b90506107626020830189610690565b61076f60408301886104c3565b8181036060830152610780816106a2565b905061078f60808301876104c3565b61079c60a08301866104c3565b6107a960c0830185610708565b6107b660e0830184610729565b98975050505050505050565b600081519050919050565b600082825260208201905092915050565b60005b838110156107fc5780820151818401526020810190506107e1565b60008484015250505050565b6000601f19601f8301169050919050565b6000610824826107c2565b61082e81856107cd565b935061083e8185602086016107de565b61084781610808565b840191505092915050565b600060408201905061086760008301856104c3565b81810360208301526108798184610819565b90509392505050565b6000815190506108918161046a565b92915050565b6000602082840312156108ad576108ac610433565b5b60006108bb84828501610882565b9150509291505056fea26469706673582212206064af21475da06aa6a9b7b5042f8c28893dfffc660c4fbec4e47487c0ccdb4064736f6c634300081c0033",
  "linkReferences": {},
  "deployedLinkReferences": {}
}