{
  "_format": "hh-sol-artifact-1",
  "contractName": "Safe",
  "sourceName": "contracts/SafeFactory.sol",
  "abi": [
    {
      "inputs": [
        {
          "internalType": "address",
          "name": "_admin",
          "type": "address"
        }
      ],
      "stateMutability": "nonpayable",
      "type": "constructor"
    },
    {
      "anonymous": false,
      "inputs": [
        {
          "indexed": true,
          "internalType": "address",
          "name": "agentRoasty",
          "type": "address"
        },
        {
          "indexed": true,
          "internalType": "address",
          "name": "admin",
          "type": "address"
        }
      ],
      "name": "SafeCreated",
      "type": "event"
    },
    {
      "inputs": [],
      "name": "AGENT_ROASTY",
      "outputs": [
        {
          "internalType": "address",
          "name": "",
          "type": "address"
        }
      ],
      "stateMutability": "view",
      "type": "function"
    },
    {
      "inputs": [],
      "name": "admin",
      "outputs": [
        {
          "internalType": "address",
          "name": "",
          "type": "address"
        }
      ],
      "stateMutability": "view",
      "type": "function"
    }
  ],
  "bytecode": "0x608060405234801561001057600080fd5b506040516103c43803806103c4833981810160405281019061003291906101d8565b600073ffffffffffffffffffffffffffffffffffffffff168173ffffffffffffffffffffffffffffffffffffffff16036100a1576040517f08c379a000000000000000000000000000000000000000000000000000000000815260040161009890610262565b60405180910390fd5b806000806101000a81548173ffffffffffffffffffffffffffffffffffffffff021916908373ffffffffffffffffffffffffffffffffffffffff16021790555060008054906101000a900473ffffffffffffffffffffffffffffffffffffffff1673ffffffffffffffffffffffffffffffffffffffff1673e05dcaf9206d125d7887919784756af8e69fad8973ffffffffffffffffffffffffffffffffffffffff167f028e373d49837c41d3257ab1d37bdf333649dc934cb13754a2329f176c3dca3260405160405180910390a350610282565b600080fd5b600073ffffffffffffffffffffffffffffffffffffffff82169050919050565b60006101a58261017a565b9050919050565b6101b58161019a565b81146101c057600080fd5b50565b6000815190506101d2816101ac565b92915050565b6000602082840312156101ee576101ed610175565b5b60006101fc848285016101c3565b91505092915050565b600082825260208201905092915050565b7f496e76616c69642061646d696e20616464726573730000000000000000000000600082015250565b600061024c601583610205565b915061025782610216565b602082019050919050565b6000602082019050818103600083015261027b8161023f565b9050919050565b610133806102916000396000f3fe6080604052348015600f57600080fd5b506004361060325760003560e01c8063afeb47eb146037578063f851a440146051575b600080fd5b603d606b565b6040516048919060e4565b60405180910390f35b60576083565b6040516062919060e4565b60405180910390f35b73e05dcaf9206d125d7887919784756af8e69fad8981565b60008054906101000a900473ffffffffffffffffffffffffffffffffffffffff1681565b600073ffffffffffffffffffffffffffffffffffffffff82169050919050565b600060d08260a7565b9050919050565b60de8160c7565b82525050565b600060208201905060f7600083018460d7565b9291505056fea2646970667358221220cf68a45cc2099f990f959cbb1f4bc274923e6781b9b7687c15b1db68918ed0e564736f6c634300081c0033",
  "linkReferences": {},
  "deployedLinkReferences": {}
}