{
  "_format": "hh-sol-artifact-1",
  "contractName": "SafeFactory",
  "sourceName": "contracts/SafeFactory.sol",
  "abi": [
    {
      "anonymous": false,
      "inputs": [
        {
          "indexed": true,
          "internalType": "address",
          "name": "admin",
          "type": "address"
        },
        {
          "indexed": false,
          "internalType": "address",
          "name": "safeAddress",
          "type": "address"
        }
      ],
      "name": "SafeDeployed",
      "type": "event"
    },
    {
      "inputs": [
        {
          "internalType": "address",
          "name": "admin",
          "type": "address"
        }
      ],
      "name": "deployCommunitySafe",
      "outputs": [
        {
          "internalType": "address",
          "name": "",
          "type": "address"
        }
      ],
      "stateMutability": "nonpayable",
      "type": "function"
    }
  ],
  "bytecode": "0x6080604052348015600f57600080fd5b506106358061001f6000396000f3fe608060405234801561001057600080fd5b506004361061002b5760003560e01c8063420d624614610030575b600080fd5b61004a600480360381019061004591906101cf565b610060565b604051610057919061020b565b60405180910390f35b60008073ffffffffffffffffffffffffffffffffffffffff168273ffffffffffffffffffffffffffffffffffffffff16036100d0576040517f08c379a00000000000000000000000000000000000000000000000000000000081526004016100c790610283565b60405180910390fd5b6000826040516100df9061015f565b6100e9919061020b565b604051809103906000f080158015610105573d6000803e3d6000fd5b5090508273ffffffffffffffffffffffffffffffffffffffff167f9f57f38058d39775937e43acd5aa6c8585579f7bffbe10c631db6e29f64086c18260405161014e919061020b565b60405180910390a280915050919050565b61035c806102a483390190565b600080fd5b600073ffffffffffffffffffffffffffffffffffffffff82169050919050565b600061019c82610171565b9050919050565b6101ac81610191565b81146101b757600080fd5b50565b6000813590506101c9816101a3565b92915050565b6000602082840312156101e5576101e461016c565b5b60006101f3848285016101ba565b91505092915050565b61020581610191565b82525050565b600060208201905061022060008301846101fc565b92915050565b600082825260208201905092915050565b7f496e76616c69642061646d696e20616464726573730000000000000000000000600082015250565b600061026d601583610226565b915061027882610237565b602082019050919050565b6000602082019050818103600083015261029c81610260565b905091905056fe608060405234801561001057600080fd5b5060405161035c38038061035c833981810160405281019061003291906101ad565b600073ffffffffffffffffffffffffffffffffffffffff168173ffffffffffffffffffffffffffffffffffffffff16036100a1576040517f08c379a000000000000000000000000000000000000000000000000000000000815260040161009890610237565b60405180910390fd5b806000806101000a81548173ffffffffffffffffffffffffffffffffffffffff021916908373ffffffffffffffffffffffffffffffffffffffff16021790555060008054906101000a900473ffffffffffffffffffffffffffffffffffffffff1673ffffffffffffffffffffffffffffffffffffffff167f9cebc3415f29f3a72d88a3509a7de71248d7362a11a5a188c070be993cc1d7c160405160405180910390a250610257565b600080fd5b600073ffffffffffffffffffffffffffffffffffffffff82169050919050565b600061017a8261014f565b9050919050565b61018a8161016f565b811461019557600080fd5b50565b6000815190506101a781610181565b92915050565b6000602082840312156101c3576101c261014a565b5b60006101d184828501610198565b91505092915050565b600082825260208201905092915050565b7f496e76616c69642061646d696e20616464726573730000000000000000000000600082015250565b60006102216015836101da565b915061022c826101eb565b602082019050919050565b6000602082019050818103600083015261025081610214565b9050919050565b60f7806102656000396000f3fe6080604052348015600f57600080fd5b506004361060285760003560e01c8063f851a44014602d575b600080fd5b60336047565b604051603e919060a8565b60405180910390f35b60008054906101000a900473ffffffffffffffffffffffffffffffffffffffff1681565b600073ffffffffffffffffffffffffffffffffffffffff82169050919050565b6000609482606b565b9050919050565b60a281608b565b82525050565b600060208201905060bb6000830184609b565b9291505056fea2646970667358221220f33f4c2d2d808e37f3f5d3d1d26e963e0d545f371ed62b0ec2ef20e0afc3a58a64736f6c634300081c0033a2646970667358221220426bd7c2c87d1dd36e7264b01bd09ba916ee9a1fc5d62441b34d2706256f69af64736f6c634300081c0033",
  "linkReferences": {},
  "deployedLinkReferences": {}
}