{
  "_format": "hh-sol-artifact-1",
  "contractName": "Subscription",
  "sourceName": "contracts/Subscription.sol",
  "abi": [
    {
      "anonymous": false,
      "inputs": [
        {
          "indexed": true,
          "internalType": "address",
          "name": "user",
          "type": "address"
        },
        {
          "indexed": false,
          "internalType": "uint256",
          "name": "timestamp",
          "type": "uint256"
        }
      ],
      "name": "Subscribed",
      "type": "event"
    },
    {
      "inputs": [],
      "name": "projectSafe",
      "outputs": [
        {
          "internalType": "address payable",
          "name": "",
          "type": "address"
        }
      ],
      "stateMutability": "view",
      "type": "function"
    },
    {
      "inputs": [],
      "name": "subscribe",
      "outputs": [],
      "stateMutability": "payable",
      "type": "function"
    }
  ],
  "bytecode": "0x6080604052348015600f57600080fd5b506103ca8061001f6000396000f3fe6080604052600436106100295760003560e01c80638f449a051461002e578063c430fa4c14610038575b600080fd5b610036610063565b005b34801561004457600080fd5b5061004d6101bd565b60405161005a9190610216565b60405180910390f35b6611c37937e0800034146100ac576040517f08c379a00000000000000000000000000000000000000000000000000000000081526004016100a39061028e565b60405180910390fd5b6000737f994977d4546e1e5e2f3731ec46fdef3e828e9d73ffffffffffffffffffffffffffffffffffffffff16346040516100e6906102df565b60006040518083038185875af1925050503d8060008114610123576040519150601f19603f3d011682016040523d82523d6000602084013e610128565b606091505b505090508061016c576040517f08c379a000000000000000000000000000000000000000000000000000000000815260040161016390610340565b60405180910390fd5b3373ffffffffffffffffffffffffffffffffffffffff167f4b90d6788928d63c1821907a6a8b95f40d26562d8fe41b105f7489db9966dfcb426040516101b29190610379565b60405180910390a250565b737f994977d4546e1e5e2f3731ec46fdef3e828e9d81565b600073ffffffffffffffffffffffffffffffffffffffff82169050919050565b6000610200826101d5565b9050919050565b610210816101f5565b82525050565b600060208201905061022b6000830184610207565b92915050565b600082825260208201905092915050565b7f496e636f727265637420737562736372697074696f6e20616d6f756e74000000600082015250565b6000610278601d83610231565b915061028382610242565b602082019050919050565b600060208201905081810360008301526102a78161026b565b9050919050565b600081905092915050565b50565b60006102c96000836102ae565b91506102d4826102b9565b600082019050919050565b60006102ea826102bc565b9150819050919050565b7f4661696c656420746f20666f72776172642066756e6473000000000000000000600082015250565b600061032a601783610231565b9150610335826102f4565b602082019050919050565b600060208201905081810360008301526103598161031d565b9050919050565b6000819050919050565b61037381610360565b82525050565b600060208201905061038e600083018461036a565b9291505056fea264697066735822122037a6b017eb20fd5b2fc4ab3666d58022a63137ebfddc918849e8b660fc68f1b364736f6c634300081c0033",
  "linkReferences": {},
  "deployedLinkReferences": {}
}